S31508000000580B002031020008AD0900081307000844
S31508000010A9090008DD0500085318000800000000BB
S31508000020000000000000000000000000D9140008CD
S31508000030E105000800000000FD100008C9150008C9
S315080000404B0200084B0200084B0200084B0200084E
S315080000504B0200084B0200084B0200084B0200083E
S315080000604B0200084B0200084B0200084B0200082E
S315080000704B0200084B0200084B0200084B0200081E
S315080000804B0200084B0200084B0200084B0200080E
S315080000904B0200084B0200084B0200084B020008FE
S315080000A04B0200084B0200084B0200084B020008EE
S315080000B04B0200084B0200084B0200084B020008DE
S315080000C04B0200084B0200084B0200084B020008CE
S315080000D04B020008351600084B0200084B020008C0
S315080000E04B0200084B0200084B0200084B020008AE
S315080000F04B0200084B0200084B0200084B0200089E
S315080001004B0200084B0200084B0200084B0200088D
S315080001104B0200084B0200084B0200084B0200087D
S315080001204B0200084B0200084B0200084B0200086D
S315080001304B0200084B0200084B0200084B0200085D
S315080001404B0200084B0200084B0200084B0200084D
S315080001504B0200084B0200084B0200084B0200083D
S315080001604B0200084B0200084B0200084B0200082D
S315080001704B0200084B0200084B0200084B0200081D
S315080001804B0200084B02000800F002F800F041F8A4
S315080001900AA090E8000C82448344AAF10107DA45D4
S315080001A001D100F036F8AFF2090EBAE80F0013F0E5
S315080001B0010F18BFFB1A43F001031847E83B00007C
S315080001C0083C0000103A24BF78C878C1FAD852070C
S315080001D024BF30C830C144BF04680C6070470000B3
S315080001E00023002400250026103A28BF78C1FBD832
S315080001F0520728BF30C148BF0B607047732900F00B
S31508000200A181002070471FB502F0EDF81FBD10B59B
S3150800021010BD00F0B5F91146FFF7F5FF01F0F8FB40
S3150800022000F0D3F903B4FFF7F2FF03BC01F0DFFBDC
S315080002300948804709480047FEE7FEE7FEE7FEE76C
S31508000240FEE7FEE7FEE7FEE7FEE7FEE704480549A8
S31508000250054A064B70470000CD15000889010008BD
S3150800026058050020580B0020580700205807002082
S31508000270704700000FB4044910B503AA029800F0AD
S3150800028065F910BC5DF814FB0000002070B50C463B
S315080002900546012A05D02878800600D5EA69002394
S315080002A002E0012305E05B1C934202D2E05C0028D1
S315080002B0F9D1A869E618C01AA861286A18442862FC
S315080002C02846AFF3008004E0D5E9012114F8010BB4
S315080002D09047B442F8D32846AFF3008070BD0000BB
S315080002E02DE9F05F894604464FF0000ADFF874B13D
S315080002F0FB44C0F820A02046E1688847002874D04F
S31508000300252806D0D4E901219047206A401C20629E
S31508000310F1E700265F462046E1688847202805461B
S3150800032007DB312D05D2781910F8200C08B10643E1
S31508000330F1E7B00701D526F00406C4F81CA000278B
S31508000340C4F818A02A2D09D0284601F049FB38B36D
S3150800035004EB8708303DC8F8185019E059F8041B13
S31508000360204604EB87029161E1688847012F05461C
S3150800037018D1E069002820DA26F020061DE0D8F812
S31508000380180000EB800005EB40003038C8F818006C
S315080003902046E1688847054601F022FB0028EED191
S315080003A0012F0AD02E2D08D12046E16888477F1CE8
S315080003B00546022F46F02006C4DBA069002803DAAA
S315080003C0404246F00106A061F00701D026F010066B
S315080003D06C2D0BD0682D09D04C2D39D06A2D35D00F
S315080003E0742D35D07A2D33D016E038E0E1682F46E3
S315080003F020468847B842054609D16C2F26D04FF4C7
S315080004008060E168064320468847054604E06C2F6D
S315080004101AD04FF4807006430DB3A5F14100192890
S3150800042002D8203546F400664A4629462046266004
S315080004304E46FFF7E3FE80B101280BD0F61D26F0E5
S31508000440070000F1080956E74020E4E78020D8E7CE
S315080004500020D6E706F104094DE7284652E7206A48
S31508000460BDE8F09F9C3A00004FF0013C50F8042B81
S3150800047051F8043B9A4221D1A2EB0C03934313EAA9
S31508000480CC1317D150F8042B51F8043B9A4215D1D6
S31508000490A2EB0C03934313EACC130BD150F8042BAD
S315080004A051F8043B9A4209D1A2EB0C03934313EA91
S315080004B0CC13DBD04FF00000704700BFD01A01BA4A
S315080004C0B1FA81F101F0180122FA01F0CB40C1F12D
S315080004D02001DBB2C0B2C01A2CFA01F3D11A91433B
S315080004E011EAC311E6D170477047704770477047E5
S315080004F001694A1C02610878704700B58FB0CDE9DA
S3150800050001310021059105497944CDE903101146C9
S315080005106846FFF7E5FE0FB000BD0000E5FFFFFFE8
S3150800052010B5436913B1AFF3008001E0FFF7AEFEE3
S31508000530012010BD127800F124010A7000224A70C9
S315080005400122EDE711684FF0FF32E9E7074B70B576
S315080005500D467B44FFF7D1FF0446284600F008F80D
S3150800056010B14FF0FF3070BD204670BD9F140000DB
S31508000570007B00F08000704700487047F4040020B4
S315080005807546FFF7F9FFAE4605006946534620F063
S315080005900700854618B020B5FFF758FEBDE820408D
S315080005A04FF000064FF000074FF000084FF0000B21
S315080005B021F00701AC46ACE8C009ACE8C009ACE8D4
S315080005C0C009ACE8C0098D46704710B50446AFF3BC
S315080005D000802046BDE81040FFF724BE00BFFEE7B6
S315080005E0704700B5034603E04FF47A7000F006F84A
S315080005F0181EA3F10103F7D100BD00000E490968D2
S315080006004FF47A72B1FBF2F1B1FBF2F14143491EA4
S315080006104FF0E0225161002191610521116100BF6F
S315080006204FF0E021096901F480310029F8D004214E
S315080006304FF0E0221161704708000020F0B50A4625
S3150800064000210023002400BF3DE0012505FA01F33F
S31508000650156805EA03049C4234D105684F00032651
S31508000660BE40B543056015794E00B540066835436A
S3150800067005601579012D02D01579022D16D18568E8
S315080006804F000326BE40B543856055794E00B540F8
S31508000690866835438560456801268E40B5434560C2
S315080006A0456896798E40B6B235434560C5684F00B1
S315080006B00326BE40B543C560D5794E00B540C66829
S315080006C03543C560491C1029BFD3F0BDF0B50023DA
S315080006D000244D07ED0E02FA05F3CE1000F12005B1
S315080006E055F826504E07F70E0F26BE40B543CF10D5
S315080006F000F1200646F82750CE1000F1200555F8DF
S31508000700265045EA0304CE1000F1200545F8264098
S31508000710F0BD00BFFEE721B1028842F48062028084
S3150800072004E002884FF6FF331A400280704770B51E
S3150800073002460025002300240026938A03F00200BF
S3150800074010B923F0100008B1148B01E0002070BD29
S31508000750240443EA040020F07F4505EA01008842A4
S3150800076001D1012600E000263046F0E7002221F0FC
S315080007707F42D3438382704721B1028842F0010247
S31508000780028004E002884FF6FE731A400280704722
S3150800079021B1028842F48072028004E002884FF692
S315080007A0FF631A400280704721B1028842F4007242
S315080007B0028004E002884FF6FF531A400280704711
S315080007C00CB50246002000230193009300920B0FFC
S315080007D0019321F07F41019B1BB1009B14330093C9
S315080007E003E0090C009B18330093009B1B680B4021
S315080007F00BB1012000E000200CBD00002DE9FF47E9
S3150800080004460D460026B1460427DFF8CC80A688A4
S315080008104FF6C0700640684600F0A2FCDDF8088076
S315080008202E48B8FBF0F01FFA80F946EA0906A680BA
S3150800083020884FF6FE71084020800026284928683F
S3150800084088420CD828684000B8FBF0F087B2042F1D
S3150800085000DA04273E4309F10100208427E0E888EE
S315080008604BF6FF71884206D1286800EB4000B8FBBA
S31508000870F0F087B209E0286800EBC00101EB001030
S31508000880B8FBF0F087B247F48047C7F30B0008B906
S3150800089047F0010747F4004006434FF4967009FBFA
S315080008A000F04FF47A7190FBF1F0401C2084A68387
S315080008B0208840F00100208026884FF6F530064053
S315080008C0A8886989084306432680A8892989084390
S315080008D02081BDE8FF87000000127A0040420F0021
S315080008E0A08601000146088AC0B2704712B141F0DD
S315080008F0010101E001F0FE010182704701827047A3
S3150800090030B587B0002406E0002500E06D1CB5F57B
S315080009107A7FFBD3641CB4F57A7FF5D301210220D4
S3150800092000F0EEFB0121480500F0FAFB042206213F
S315080009301A48FFF7CBFE042207211848FFF7C6FE20
S31508000940C020059002208DF819008DF818000120A6
S315080009508DF81A008DF81B0005A91048FFF76EFEE2
S315080009600020ADF808004BF6FF70ADF80A0000202D
S31508000970ADF80C004FF48060ADF80E000001ADF83C
S3150800098010000748019001A90648FFF737FF012123
S315080009900448FFF7F1FE07B030BD0000000402402E
S315080009A0801A06000054004000BFFEE770470000AA
S315080009B070B5002100230F22C4781CB3174C246895
S315080009C004F4E064C4F5E064C4F30721C1F1040447
S315080009D0E3B20A4144789C40E1B28478144021434A
S315080009E00C07210E0E4C05786155047804F01F0596
S315080009F00124AC4005786D11AD0005F1E025C5F878
S31508000A00004109E0047804F01F050124AC40054DB7
S31508000A100678761145F8264070BD00000CED00E01A
S31508000A2000E400E080E100E000200CE0002106E0A0
S31508000A300022064B03EBC0135A544A1CD1B2802934
S31508000A40F6DB421CD0B20828F0DB7047F400002021
S31508000A502DE9F04304460D4616461F46284638E05B
S31508000A60224631E0002A2DDB7F2A2BDC002829DBF1
S31508000A703F2827DC4FEAE07C00EB5C7C4FEAEC0C75
S31508000A80DFF8588008EBCC1C1CF802C003464FEA76
S31508000A90E07800EB58784FEAE808A0EBC8094FF071
S31508000AA0010808FA09F82CEA080C01464FEAE0782A
S31508000AB000EB58784FEAE808DFF8209009EBC818E9
S31508000AC008F802C0511C0AB2A1199142CADC411C9D
S31508000AD008B2E9198142C3DCBDE8F083F4000020BE
S31508000AE02DE9F04105460E46174642F2107800BF3A
S31508000AF04FF400312948FFF763FE20B1B8F1000032
S31508000B00A8F10108F4D1B8F1000F04D124A0FFF729
S31508000B10B1FBBDE8F08101212048FFF739FE2AA282
S31508000B202D491E4800F098FE00B1F2E70022782110
S31508000B301A48FFF7DBFE29A22D49184800F08CFE5B
S31508000B4000B1E6E729461548FFF7D8FE29A2284945
S31508000B50891E124800F080FE00B1DAE700240DE095
S31508000B60315D0E48FFF7CAFE27A22149891E0B48A8
S31508000B7000F072FE00B1CCE7601C84B2BC42EFDB29
S31508000B8000BF1B49891C0548FFF7D1FD0028F8D08E
S31508000B9001210248FFF708FE00BFBAE700540040EB
S31508000BA04F4C4544204572726F723A204275732045
S31508000BB042757379206265666F7265207374617217
S31508000BC074210D0A00000000537461727420426992
S31508000BD0742028455635290001000300536C6176B8
S31508000BE0652041646472657373202845563629006A
S31508000BF082000700436F6E74726F6C20526567201F
S31508000C0028455638290000004461746120427974E9
S31508000C10652028455638290010B5AE2000F05EFA42
S31508000C20D52000F05BFA802000F058FAA82000F0E2
S31508000C3055FA3F2000F052FAD32000F04FFA002070
S31508000C4000F04CFA402000F049FAA12000F046FADC
S31508000C50C82000F043FADA2000F040FA122000F02B
S31508000C603DFA812000F03AFACF2000F037FAD92071
S31508000C7000F034FAF12000F031FADB2000F02EFA09
S31508000C80302000F02BFAA42000F028FAA62000F065
S31508000C9025FA8D2000F022FA142000F01FFAAF2062
S31508000CA000F01CFAFFF7C0FE00F004FA10BD10B5FC
S31508000CB00246012000E050430B1EA1F10101FAD1C2
S31508000CC010BD70B505460C4645F0B00000F006FAB2
S31508000CD0102141EA141000F001FA04F00F0000F0A8
S31508000CE0FDF970BDF8B506460F4614461D46082D93
S31508000CF00CD1A4F12000164901EB0010102308229C
S31508000D0039460090304600F0A9F820E0062D0ED1AD
S31508000D10A4F1200000EB40000E4901EB4000082337
S31508000D20062239460090304600F098F80FE00C2D60
S31508000D300DD1A4F1200000EBC000074901EB8000AB
S31508000D4018230C2239460090304600F087F8F8BD83
S31508000D50F0230008E02900081A2C00082DE9F04FB6
S31508000D602DED088B81B005468B46B0EE408AF0EE35
S31508000D70608A16469A46129C9FED360B53EC102B4A
S31508000D8051EC180B01F038F906D823462B225946A0
S31508000D902846FFF7A7FF0BE023462D22594628468B
S31508000DA0FFF7A0FF51EC180B00F0ECFE41EC180B16
S31508000DB051EC180B00F0A6FF8046404600F0CFFF26
S31508000DC041EC190B53EC182B01F0A6F941EC180B62
S31508000DD051460A20FFF76BFF0746384600F0BFFF6B
S31508000DE041EC1B0B53EC182B01F008F841EC1A0BDD
S31508000DF0B0EE4A0AF0EE6A0A00F082FDB0EE409ABA
S31508000E00F0EE609A51EC190B00F07CFF8146B9FBB5
S31508000E10F7F08044291908B23346424659460094E9
S31508000E2000F09AF8711C01FB045108B223462E22E1
S31508000E305946FFF757FFB11C01FB045108B2534648
S31508000E404A465946009400F087F801B0BDEC088B75
S31508000E50BDE8F08F00000000000000002DE9FF4FFC
S31508000E6080460E469146DDF834B0002500244A46F1
S31508000E7031464046039BFFF7EBFD00BF5EE00025C9
S31508000E8058E008EB0500002852DB08EB05007F2830
S31508000E904EDC3046F11706EB5171C9100FB2F11747
S31508000EA006EB5171C910A6EBC10A002E05DA781EA9
S31508000EB007B20AF108000FFA80FA3819002817DB7A
S31508000EC03819072814DC3819224901EBC01008EB39
S31508000ED00501405C04FB09511BF8011001FA0AF1EF
S31508000EE0084339191B4A02EBC11108EB050288545D
S31508000EF03819401C00281BDB3819401C072817DC4A
S31508000F003819401C134901EBC01008EB0501405C79
S31508000F1004FB09511BF80110CAF1080211410843E4
S31508000F203919491C0B4A02EBC11108EB0502885412
S31508000F30681CC5B24D45A4DB601CC4B20399481EA3
S31508000F40C11700EB5171012202EBE101A14296DCC7
S31508000F50BDE8FF8FF40000202DE9F04706468946D4
S31508000F6017461D46DDF82080002417E0281B411E81
S31508000F700A20FFF79CFEB7FBF0F00A21B0FBF1F25E
S31508000F8001FB120000F1300A04FB086108B243466F
S31508000F9052464946FFF7A6FE601CC4B2AC42E5DBE2
S31508000FA0BDE8F0872DE9FE4F07468A46144698465F
S31508000FB00025AB46002672E0605D00F0800058B957
S31508000FC04FF0010B2846691C8DB2205C8DF8040091
S31508000FD000208DF8050013E04FF0020B2846691C27
S31508000FE08DB2205C8DF80400605D00B95AE0284691
S31508000FF0691C8DB2205C8DF8050000208DF806006E
S31508001000BBF1010F0BD19DF80420B91908B243466C
S315080010105146FFF767FE06EB080086B23FE04FF041
S3150800102000090EE0C9EBC90101EB81011F4A8818C6
S3150800103001A9FFF719FA00B90EE009F101001FFA34
S3150800104080F9C9EBC90101EB8101184A881818A172
S31508001050FFF70AFA0028E5D100BFB8F1080F12D148
S31508001060C9EBC90000EB800010490844C01CB91937
S31508001070009008B210231A465146FFF7EFFE06F114
S31508001080100086B20BE0B8F1060F08D1B91908B2FC
S3150800109006233F225146FFF725FEB01D86B2605D46
S315080010A0002889D100BFBDE8FE8F00007639000808
S315080010B00000000010B500240BE000212046FFF7D1
S315080010C000FE054901EBC410802100F00EF8601CF3
S315080010D0C4B2082CF1DB10BDF400002001B50122D2
S315080010E069460020FFF7FCFC08BD70B504460D46AE
S315080010F02A4621464020FFF7F3FC70BD70470000E2
S3150800110029B1064A12680243044B1A6004E0034AEE
S3150800111012688243014B1A6070470000303802405B
S3150800112029B1064A12680243044B1A6004E0034ACE
S3150800113012688243014B1A6070470000403802402B
S3150800114029B1064A12680243044B1A6004E0034AAE
S3150800115012688243014B1A60704700004438024007
S31508001160F0B5002100220024022500260223324F72
S315080011703F6807F00C0121B1042905D0082937D1A9
S3150800118005E02E4F076036E02D4F076033E02A4F03
S315080011903F1F3F68C7F38056274F3F1F3F6807F03A
S315080011A03F036EB1264FB7FBF3F7DFF88CC0ACF1FF
S315080011B0040CDCF800C0CCF3881C07FB0CF40CE02C
S315080011C01E4FB7FBF3F7DFF870C0ACF1040CDCF880
S315080011D000C0CCF3881C07FB0CF4174F3F1F3F6871
S315080011E0C7F301477F1C7D00B4FBF5F7076002E0F3
S315080011F0124F076000BF00BF0F4F3F6807F0F001AE
S315080012000909104F7A5C0768D74047600A4F3F685C
S3150800121007F4E051890A0B4F7A5C4768D740876024
S31508001220054F3F6807F46041490B064F7A5C4768EB
S31508001230D740C760F0BD0000083802400024F4001B
S3150800124000127A001C000020F8B506460D4602E09A
S315080012501420FFF7C6F900F0FDF80028F8D000BF03
S315080012602D492E48FFF7ACFA0028F9D02B48FFF78E
S3150800127039FB8DF8000000BF27492848FFF7A0FA78
S315080012800028F9D02548FFF72DFB8DF8010000212D
S315080012902248FFF740FA01212048FFF785FA00BFE8
S315080012A01D491E48FFF78CFA0028F9D01B48FFF79E
S315080012B019FB8DF8020001211848FFF72CFA9DF852
S315080012C001009DF8001040EA01244FF6FC70044026
S315080012D0F32E10D100EE104AB8EE400A9FED101A10
S315080012E0C0EE010A9FED0F0A9FED0F1A01EE200AC4
S315080012F085ED000A0FE000EE104AB8EE400A9FEDB1
S31508001300081AC0EE010A9FED091AB9EE080A01EE9D
S31508001310200A85ED000AF8BD400000100054004080
S315080013200000804766663BC252B82F430000FA4267
S3150800133010B501211548FFF72BFA15A216491348CF
S3150800134000F0B4FA00B110BD002280210F48FFF763
S31508001350CDFA12A213490D4800F0A8FA00B1F2E737
S31508001360FE210A48FFF7CAFA0FA20E49891C074848
S3150800137000F09CFA00B1E6E701210448FFF714FAE9
S315080013800F20FFF72EF900BFDDE7000000540040EC
S3150800139053746172740000000100030041646472B2
S315080013A057000000820007005265736574436D6438
S315080013B00000000010B5044601211448FFF7E8F9BB
S315080013C013A21749114800F071FA00B110BD0022A6
S315080013D080210E48FFF78AFA12A218490B4800F036
S315080013E065FA00B1F2E721460848FFF787FA14A222
S315080013F01249891C054800F059FA00B1E6E70121AF
S315080014000248FFF7D1F900BFE0E7000000540040AA
S3150800141053544152542074696D656F757400000009
S3150800142001000300414444524553532073656E64DA
S315080014302074696D656F75740000000082000700EE
S31508001440425954452073656E642074696D656F75DD
S315080014507400000070B501211B48FFF799F91B4C71
S3150800146007E0641E2CB901211748FFF79DF90020F3
S3150800147070BD17491448FFF75AF90028F1D0012220
S3150800148081211148FFF732FA42F2107512E011492C
S315080014900D48FFF795F918B9281EA5F1010509D1D8
S315080014A00C490948FFF762F901210748FFF77CF95B
S315080014B00020DDE70649491C0348FFF738F90028EC
S315080014C0E5D00120D4E700000054004020A1070021
S315080014D00100030000040010704700000CB500204E
S315080014E0019000903448006840F480303249086022
S315080014F000BF3148006800F4003000900198401C95
S315080015000190009818B90198B0F5A04FF1D12A4872
S31508001510006800F4003010B10120009001E00020BE
S3150800152000900098012846D123484030006840F0D2
S3150800153080502149403108602048006840F4404006
S315080015401E4908601C48083000681B4908310860B5
S315080015500846006840F4004008600846006840F401
S31508001560A05008601648091F0860081F006840F068
S315080015708070091F086000BF0F48006800F00070FF
S315080015800028F9D040F205700E4908600A4808306C
S31508001590006820F00300084908310860084600681A
S315080015A040F00200086000BF03480830006800F0F9
S315080015B00C000828F8D10CBD003802400070004025
S315080015C008544007003C02407047000010B5154813
S315080015D0006840F47000134908601348006840F03A
S315080015E001001149086000200F49083108600E48BB
S315080015F000680E4908400C4908600D48091D086036
S31508001600081F006820F48020091F0860002006498A
S315080016100C310860FFF762FF4FF00060014980391E
S31508001620086010BD88ED00E000380240FFFFF6FEB6
S315080016301030002410B540F225511D4800F04AF834
S3150800164010B31B4800F000F9C4B21A48008800F429
S315080016500040C8B91748008800F4804060B10A2CD9
S3150800166003D000201349088020E01248008840F47F
S3150800167000401049088019E00D2C06D10D48008855
S3150800168040F480400B49088010E00A480088C0F3FF
S315080016900D0009490C5407480088401C0549088074
S315080016A008460088C72801DD0020088010BD000014
S315080016B000100140040000202C00002021B182897E
S315080016C042F40052828104E082894DF6FF731A4083
S315080016D08281704770B50246002400230025002049
S315080016E040F66A16B14200D100BFC1F3421501F0B7
S315080016F01F03012606FA03F3012D02D1968933400A
S3150800170006E0022D02D1168A334001E0968A33405C
S315080017100C12012606FA04F41688344013B10CB1EB
S31508001720012000E0002070BDF0B503460024002625
S315080017300025002040F66A17B94200D100BF1846B6
S31508001740C1F3421401F01F06012707FA06F5012C1A
S3150800175001D10C3004E0022C01D1103000E0143025
S315080017601AB107682F43076002E00768AF430760AE
S31508001770F0BD00002DE9FF4705460E460024A146A8
S3150800178000BFA046B08900B100BF2C8A24F440549B
S31508001790F08804432C82AC8941F20C608443B088FB
S315080017A031890843718908430443AC81AC8A24F41F
S315080017B04074B0890443AC826846FFF7D1FC2048E0
S315080017C0854202D01F48854202D1DDF80C9001E01F
S315080017D0DDF80890A88900F4004040B109EBC9007B
S315080017E000EB091031684900B0FBF1F707E009EB97
S315080017F0C90000EB091031688900B0FBF1F76420D5
S31508001800B7FBF0F004012009642101FB1078A889D0
S3150800181000F4004040B1322000EBC800B0FBF1F004
S3150800182000F00700044308E0322000EB08106421AA
S31508001830B0FBF1F000F00F0004432C81BDE8FF87F0
S31508001840001001400014014001468888C0F30800D2
S31508001850704700BFFEE700002DE9F04105460E4639
S3150800186014460C4F0EE0381EA7F101070AD121468F
S3150800187009A0FEF7FFFC01212846FEF795FF012087
S31508001880BDE8F08131462846FEF751FF0028EAD028
S315080018900020F5E720A107004F4C45442045727209
S315080018A06F723A20257320210D0A00002DE9F041B8
S315080018B005460E4614460C4F0EE0381EA7F10107E2
S315080018C00AD1214609A0FEF7D5FC01212846FEF7D4
S315080018D06BFF0120BDE8F08131462846FEF727FF59
S315080018E00028EAD00020F5E720A107005348543223
S315080018F030204572726F723A20257320210D0A0036
S3150800190010B52DED020B2DED088B84B09DED0C0B5B
S3150800191051EC100B00F0A6FB41EC180B9DED0C0BDF
S3150800192053EC182B51EC100B00F002FC41EC190B90
S315080019300D989FED290B10F0004F53EC102B51EC2E
S31508001940190B9FED21AB9FED22BB0ED000F01AFAC2
S315080019500ED953EC1B2B51EC190B00F04DFB1CD286
S3150800196014E000BF41EC180B17E000F00BFA06D2A2
S3150800197053EC1A2B51EC180B00F0DAFBF2E753EC98
S315080019801B2B51EC190B00F037FB06D853EC1A2B1E
S3150800199051EC180B00F002F9E4E78DED028B9DED92
S315080019A00C0B18EE901A10EE900A8DED000B61F3F1
S315080019B01E0003909DED020B04B0BDEC088B02B02F
S315080019C010BD000000000000000000000000F03F0D
S315080019D0000000000000E03F000000000000E0BF3B
S315080019E030380A2801D2012070470020704700BF0E
S315080019F07047000000BF054A128802F04002002A1C
S31508001A00F9D0C2B2014B9A8070470000001001401D
S31508001A102DED028B84B04FF4E13000F05DF8FEF74F
S31508001A206FFFFFF7F9F8FFF783FC49E09FED250AFA
S31508001A308DED030A9FED230A8DED020AF320FFF7C9
S31508001A40B9FC082320A200210846FFF7ABFA03A930
S31508001A50F320FFF7F9FB039800F054FC41EC180B50
S31508001A60082002231A46B0EE480AF0EE680A00215A
S31508001A7000902820FFF772F9F520FFF79BFC082352
S31508001A8013A210210020FFF78DFA02A9F520FFF70F
S31508001A90DBFB029800F036FC41EC180B0820022309
S31508001AA01A46B0EE480AF0EE680A1021009028207F
S31508001AB0FFF754F9FFF7FEFA6420FEF792FD00BF20
S31508001AC0B4E700000000000054454D503A000000FD
S31508001AD048554D493A00000010B588B00446012122
S31508001AE00846FFF70DFB01211020FFF729FB072207
S31508001AF009212248FEF7EAFD07220A211F48FEF7B8
S31508001B00E5FD4FF4C060069002208DF81C008DF8A4
S31508001B101D0000208DF81E0001208DF81F0006A963
S31508001B201648FEF78BFD02940020ADF80C00ADF8C0
S31508001B300E00ADF81000ADF814000C20ADF8120038
S31508001B4002A90F48FFF716FE01210D48FFF7B6FD5B
S31508001B50012240F225510A48FFF7E6FD25208DF8B7
S31508001B60040003208DF805008DF8060001208DF885
S31508001B70070001A8FEF71CFF08B010BD00000240D0
S31508001B800010014081F00041704780F00040704726
S31508001B9021F00041704720F00040704710B591EAE7
S31508001BA0030F48BF83F0004300F1CA82841A71EB21
S31508001BB0030C05D2121943EB0C03001B61EB0C0155
S31508001BC0DFF824E14FEA1154A4EB135C1EEA430F35
S31508001BD018BF9EEA445F73D023EA0E03DCF1200E99
S31508001BE021EA045143F4801332D322FA0CFE10EB97
S31508001BF00E0023FA0CFE41EB0E01CCF1200E03FA7F
S31508001C000EFE10EB0E0051F10001B1F5801FCCF16C
S31508001C10200E32D201EB045112FA0EF2BDE8104042
S31508001C2058BF7047401C38BF5FEA420218BF70476A
S31508001C30002814BF20F0010041F100014FEA4103DA
S31508001C4013F5001F38BF7047A1F1C04100F0CEB9A7
S31508001C50012A43EB0302ACF1200CDCF11F0E32BF64
S31508001C604FF0000E23FA0CF310EB030041EB04517E
S31508001C70B4EB115FD0D0A1EB045101F580114908EE
S31508001C805FEA300001EB04510ED350F1000038BF73
S31508001C9012FA0EFE08D1BDE81040C9E7401C38BF4D
S31508001CA05FEA4202CAD1C3E7BDE810404FEA4103E2
S31508001CB013F5001F38BF7047A1F1C04100F096B96F
S31508001CC09EEA445F08D011EA5E0FBDE8104004BFE3
S31508001CD001F0004100207047BDE8104070B500F0E3
S31508001CE037F900BF64FBBE3E0000E0FF491058BF4D
S31508001CF0C1F140415B1058BFC3F140438B42EFF33B
S31508001D00008070474FEA1153A3F58063D3F11E0391
S31508001D10A8BFD3F1200C08DB4FF0004242EAC122EB
S31508001D2052EA505232FA03F0704709420BD4102B8C
S31508001D30C4BF0020704703F5787CBCF1FF3F05D08F
S31508001D404FF0FF3070474FF00000704770B500F055
S31508001D50FFF800BF4992248000207047F0E7B0FAE8
S31508001D6080F310FA03F10AD0C3F11D0303F580636B
S31508001D704FEA41504FEA035202EBD12170474FF028
S31508001D800000704751EA030C17D41CF5801F58BF92
S31508001D90BCF5801F00F10680994218BF704708BF3E
S31508001DA09042704707D711F5801F58BF13F5801F5B
S31508001DB019D499427047894270471CF5801F08D587
S31508001DC0BCF5801FF7D58B4218BF704708BF824203
S31508001DD070474FF4001C1CEB410F38BF1CEB430F38
S31508001DE001D28B42704770B500F0B2F892244900D0
S31508001DF04FF000514FF08053FFF778BFDFF848C126
S31508001E0070B51CEA111E1EBF1CEA13159EEA0C0FBC
S31508001E1095EA0C0F00F06F8081EA030423EA4C135D
S31508001E204EEAD47E21EA4C1141F4801143F4801322
S31508001E30AE44A1FB024CA0FB0365AEF17F7E3619CA
S31508001E4055EB0C05A1FB034C4CF10003A0FB021C4F
S31508001E5016EB0C06654153F10003094218BF46F01C
S31508001E60010613F4007F0BD14FEA03314FEA053020
S31508001E70340341EA155140EA16506FF003020AE0AE
S31508001E804FEAC3214FEAC520F40241EA555140EA18
S31508001E9056506FF0020202EB2E4201EB025585EA1C
S31508001EA0CE710AD05FEA440C18BF24F0004450F102
S31508001EB0000041F1000120EAD47040F2FE7C624540
S31508001EC000D270BDA84214BF4FF080444FF0404482
S31508001ED0002E08BF0024BEF1806FA8BFA1F1C04143
S31508001EE0BDE8704080F282804FF0000001F1C041E9
S31508001EF001F0004170479EEA0C0F0CEA131518BF53
S31508001F0095EA0C0F06D04FF0000081EA030E0EF09A
S31508001F10004170BD00F01CF88900013E00F007B8CA
S31508001F2000F009B84FEA430C5FEA5C5C08D081EA26
S31508001F30030100F05BB84FEA410C5FEA5C5CF6D13E
S31508001F404FF00000014970470000FF070000F87FC6
S31508001F500EF1020E2EF0030E5EF8046B364205D41F
S31508001F60012A43EB030515F5001F12D8012841EB9A
S31508001F70010C1CF5001F0CD80ED14FEAD17C15F5C3
S31508001F80001F0CEB4C0C0CF1020C08BF4CEBD37C7D
S31508001F9004E04FF0080C01E04FEAD37C0CEB4C054B
S31508001FA026FA05F606F00706B6F1040C06D20EEB7D
S31508001FB0860CBDE870404CF0010C6047DFE80CF079
S31508001FC0090B02024FF000414FF00000A1F5002175
S31508001FD070BD19461046012851EB010418BFD4F507
S31508001FE0001484BF002001F0004170BD0808A0F568
S31508001FF000114FEA3101704753EA010C17D41CF55A
S31508002000801F58BFBCF5801F00F106808B4218BFA1
S31508002010704708BF8242704707D713F5801F58BF1D
S3150800202011F5801F19D48B4270479B4270471CF5E7
S31508002030801F08D5BCF5801FF7D5994218BF704791
S3150800204008BF904270474FF4001C1CEB430F38BF83
S315080020501CEB410F01D2994270470FB40CBC03BC6C
S31508002060FFF7C1BE5FEA410C5FEA5C5CACF58063D2
S315080020705B1C39D4D3F1340240F34580B2F1200316
S3150800208014DA4FF0010C0CFA02FCACF10103034020
S31508002090B3EB5C0220EA030008BF10EA0C0F98BFF6
S315080020A0704710EB0C0041F1000170470AD0C3F1EC
S315080020B0200201FA02FC012821FA03F101FA03F1D0
S315080020C04CF100004FF0010C0CFA03FCACF10103D3
S315080020D0B0F1004F21EA030108BF11EA0C0F4FF0D7
S315080020E0000088BF61447047B3F1FF3F28BF50EA3C
S315080020F0C12C01F000414FF0000084BF41F07C5133
S3150800210041F470017047B3F5806FB8BF704770B57A
S31508002110FFF71EFF40DBB6BE91EA030F10B581F04C
S3150800212000413FF543AD83F0004300F009B80000D5
S3150800213010B591EA030F48BF83F000433FF536AD6B
S31508002140841A71EB030C07D212198CF0004C43EB7E
S315080021500C03001B61EB0C01DFF8A4E14FEA1154F4
S31508002160A4EB135C1EEA430F18BF9EEA445F00F017
S31508002170B08023EA6E03524221EA0451C3EB6E0390
S3150800218038BF5B1EDCF1200E25D322FA0CFE10EBBD
S315080021900E0043FA0CFE41EB0E01CCF1200E03FAB9
S315080021A00EFE10EB0E0051F10001CCF1200E29D4E1
S315080021B012FA0EF201EB0451BDE8104058BF704701
S315080021C0401C1CBFB2F1004F704700280CBF491CC9
S315080021D020F00100704712EB020E43EB030218BF12
S315080021E04FF0010E4EEA4202ACF1200CDCF11E0E55
S315080021F054D943FA0CFE10EB0E0051F1FF31CCF125
S315080022001E0ED5D50EF1010E12FA0EFE404141EB17
S31508002210010101EB445C5FEA5C5C10D910EBDE70EF
S3150800222001EB045138BFBEF1004FBDE8104018BF9E
S31508002230704700280CBF491C20F00100704730D2B7
S315080022404FEAD42C11F5001124F400641BD0B1FA1E
S3150800225081F20B3AA41AA41ED2F12003914030FA57
S3150800226003F31943904001EBCC71002C01EB0451A8
S31508002270BDE81040A8BF704701F1C0414FF000000B
S3150800228001F000417047B0FA80F310FA03F100D16B
S3150800229010BDE41A173C4805C90AE4E701EB0451E6
S315080022A010BD491001EB0451BDE810404FEA30005B
S315080022B002E04FF0000170474A0008BF0042F8D01C
S315080022C0B2F5001F28BF704701F000414FF000002B
S315080022D070479EEA445F07D011EA5E0FBDE81040DA
S315080022E004BF002100207047BDE8104070B5FFF715
S315080022F02FFE00BF40DFF63E83F0004110467047D0
S315080023000000E0FF43004FEAD30C4FEA3C0C434081
S315080023101FBF40070CF1605113F0FE4F70471CF0C9
S31508002320006F03D100200CF0004170470CF0004309
S3150800233043EA507010B540EACC0000F00EF800BF32
S31508002340000000924FEA0001FFF750BE4FF000412F
S315080023504FF00000A1F5002170470EF1020E2EF095
S31508002360030E5EF8044B244204D44FEA4102B2F14C
S315080023707F4F11D84FEA4003B3F17F4F0CD80ED1E7
S315080023804FEAD07CB2F17F4F0CEB4C0C0CF1020CEF
S3150800239008BF4CEBD17C04E04FF0080C01E04FEA93
S315080023A0D17C0CEB4C0324FA03F404F00704B4F1D3
S315080023B0040C06D20EEB840CBDE810404CF0010C60
S315080023C06047DFE80CF0070802024FF00040A0F56E
S315080023D0800010BD0846420018BFD2F1807288BF3F
S315080023E000F0004010BD4FF04070E1EE100A704753
S315080023F000000000000000000000000000000000CF
S31508002400000000F800000000000000333000000063
S3150800241000160E00160E0000000000000000000066
S3150800242040C07840C0784000043F04043F040400DC
S31508002430007088FC08300000001820FF211E0000EC
S31508002440F008F000E018000000211C031E211E0001
S3150800245000F00888700000001E2123241927211087
S31508002460000000160E00000000000000000000003A
S31508002470000000E0180402000000000718204000D1
S3150800248000020418E00000000040201807000000C1
S31508002490404080F0804040000202010F0102020025
S315080024A0000000F0000000000101011F0101010009
S315080024B0000000000000000000B0700000000000EE
S315080024C000000000000000000001010101010101F7
S315080024D0000000000000000000303000000000008E
S315080024E00000000080601804006018060100000063
S315080024F000E010080810E000000F102020100F0060
S31508002500001010F8000000000020203F20200000E6
S31508002510007008080888700000302824222130003E
S3150800252000300888884830000018202020110E0046
S315080025300000C02010F8000000070424243F2400EF
S3150800254000F80888880808000019212020110E00C4
S3150800255000E0108888180000000F112020110E00D6
S3150800256000380808C83808000000003F00000000CE
S315080025700070880808887000001C222121221C008F
S3150800258000E010080810E0000000312222110F00B8
S31508002590000000C0C000000000000030300000004D
S315080025A0000000C0C0000000000080B070000000FD
S315080025B000008040201008000001020408102000D6
S315080025C04040404040404000040404040404040021
S315080025D000081020408000000020100804020100B6
S315080025E0007048080808F0000000003036010000B6
S315080025F0C030C828E810E0000718272423140B0069
S315080026000000C038E0000000203C230202273820E2
S3150800261008F8888888700000203F202020110E00C6
S31508002620C0300808080838000718202020100800BD
S3150800263008F808080810E000203F202020100F00A6
S3150800264008F88888E8081000203F20202320180072
S3150800265008F88888E8081000203F200003000000DA
S31508002660C03008080838000007182020221E02007B
S3150800267008F808000008F808203F210101213F203A
S31508002680000808F8080800000020203F2020000065
S3150800269000000808F8080800C08080807F00000055
S315080026A008F888C028180800203F2001263820008E
S315080026B008F8080000000000203F202020203000F5
S315080026C008F8F800F8F80800203F003F003F20000F
S315080026D008F830C00008F808203F200007183F0017
S315080026E0E01008080810E0000F10202020100F0046
S315080026F008F808080808F000203F21010101000039
S31508002700E01008080810E0000F18242438504F007D
S3150800271008F8888888887000203F2000030C30203D
S3150800272000708808080838000038202121221C007B
S31508002730180808F8080818000000203F20000000C4
S3150800274008F808000008F808001F202020201F00AD
S315080027500878880000C83808000007380E0100000D
S31508002760F80800F80008F800033C0700073C0300D7
S31508002770081868808068180820302C03032C30203D
S315080027800838C800C83808000000203F20000000AC
S3150800279010080808C8380800203826212020180004
S315080027A0000000FE020202000000007F40404000D8
S315080027B0000C30C000000000000000010638C00010
S315080027C000020202FE000000004040407F000000B8
S315080027D00020100804081020000000000000000077
S315080027E000000000000000008080808080808080DB
S315080027F000020408000000000000000000000000BD
S3150800280000008080808000000019242222223F20B8
S3150800281008F8008080000000003F112020110E00FB
S315080028200000008080800000000E1120202011008A
S31508002830000000808088F800000E112020103F203C
S315080028400000808080800000001F222222221300C0
S31508002850008080F0888888180020203F202000000B
S315080028600000808080808000006B949494936000C0
S3150800287008F8008080800000203F210000203F20CB
S3150800288000809898000000000020203F20200000CB
S31508002890000000809898000000C08080807F0000BB
S315080028A008F8000080808000203F24022D30200098
S315080028B0000808F8000000000020203F2020000043
S315080028C08080808080808000203F20003F20003F5D
S315080028D0008080008080000000203F2100203F20EB
S315080028E00000808080800000001F202020201F001C
S315080028F0808000808000000080FFA12020110E004B
S315080029000000008080808000000E112020A0FF803B
S31508002910808080008080800020203F2120000100E8
S31508002920000080808080800000332424242419003D
S31508002930008080E0808000000000001F202000004A
S315080029408080000000808000001F202020103F208B
S31508002950808080000080808000010E30080601001B
S3150800296080800080008080800F300C030C300F00C0
S3150800297000808000808080000020312E0E312000EB
S31508002980808080000080808080818E70180601001B
S3150800299000808080808080000021302C2221300039
S315080029A000000000807C020200000000003F40405A
S315080029B000000000FF00000000000000FF0000000B
S315080029C00002027C800000000040403F000000003A
S315080029D000804040800000800000000000010100E7
S315080029E00000000000000000002F000000000700A3
S315080029F0070000147F147F1400242A7F2A1200235C
S31508002A00130864620036495522500000000700008A
S31508002A1000001C224100000041221C000014083E50
S31508002A2008140008083E0808000000A06000000816
S31508002A30080808080000606000000020100804026A
S31508002A40003E5149453E0000427F40000042615128
S31508002A504946002141454B31001814127F100027C2
S31508002A6045454539003C4A49493000017109050385
S31508002A7000364949493600064949291E00003636B6
S31508002A800000000056360000000814224100001419
S31508002A9014141414000041221408000201510906F6
S31508002AA0003E4955592E007C1211127C007F494977
S31508002AB04936003E41414122007F4141221C007FA8
S31508002AC049494941007F09090901003E4149497AB6
S31508002AD0007F0808087F0000417F41000020404130
S31508002AE03F01007F08142241007F40404040007F9C
S31508002AF0020C027F007F0408107F003E4141413EE0
S31508002B00007F09090906003E4151215E007F091927
S31508002B1029460046494949310001017F0101003F24
S31508002B204040403F001F2040201F003F4038403FA4
S31508002B300063140814630007087008070061514908
S31508002B40454300007F4141000002040810200000B0
S31508002B5041417F0000040201020400404040404019
S31508002B60000001020400002054545478007F4844B1
S31508002B70443800384444442000384444487F0038E8
S31508002B805454541800087E0901020018A4A4A47C11
S31508002B90007F080404780000447D400000408084DB
S31508002BA07D00007F102844000000417F4000007C23
S31508002BB004180478007C080404780038444444382F
S31508002BC000FC242424180018242418FC007C08047B
S31508002BD0040800485454542000043F444020003C54
S31508002BE04040207C001C2040201C003C4030403CDB
S31508002BF0004428102844001CA0A0A07C004464546B
S31508002C004C440000087F41000000007F00000000DF
S31508002C10417F0800000804081008000000000000B2
S31508002C200000000000000000000000000000000096
S31508002C300000000000000000000000000000000086
S31508002C40000000F0F000000000000000000000771F
S31508002C500F000000000000000000001C1C0000001F
S31508002C60000000008060301C8C60301C0C000000E6
S31508002C700000000000000000000000000000000046
S31508002C8000000000000000000000F000000000F056
S31508002C900000008383FF83838383FB87830000010F
S31508002CA01F01010101011F010100000080C0602011
S31508002CB0F820E0C00000000003070C18FF71E1814E
S31508002CC000000000070F12107F100F070000C03029
S31508002CD01030C00000C03000000007181018CF38A8
S31508002CE0C6311030C0000000180700000718101879
S31508002CF007000000E0F010F0E00000000000C0E06F
S31508002D00173FF8C70308F8080800070F181010132C
S31508002D100F0E1910100C00008C4C38000000000033
S31508002D200000000000000000000000000000000095
S31508002D300000000000000000000000000000000085
S31508002D408060100804000000000000FE010000007A
S31508002D500000000000000000030C102040000004E2
S31508002D60081060800000000000000000000000015C
S31508002D70FE0000000000004020100C0300000000C8
S31508002D800000000000000000C0800000000000668F
S31508002D9066243810FF183C24666600000000000010
S31508002DA00300000000000000000000008000000092
S31508002DB00000001010101010FF1010101010000066
S31508002DC000000000030000000000000000000000F2
S31508002DD000000000000000000000000000000000E5
S31508002DE0000000008C4C38000000000000000000C5
S31508002DF00000000000000000000000101010101075
S31508002E001010101010000000000000000000000064
S31508002E1000000000000000000000000000000000A4
S31508002E200000000000000000000000001C1C1C0040
S31508002E300000000000000000000000000000E0386C
S31508002E400C000000000080701C03000000000060F9
S31508002E50380E0100000000000000000080C060205D
S31508002E602060C080000000FEFF010000000001FF96
S31508002E70FE000001070E181010180E0701000000CA
S31508002E80404040C0E000000000000000000000FFD5
S31508002E90FF000000000000001010101F1F10101087
S31508002EA000000080402020202060C0800000000331
S31508002EB0030000C060301F07000000181C12111024
S31508002EC01010101E000000C0C020202060C0800026
S31508002ED00000000101001010182FE7800000000E06
S31508002EE00E10101010180F07000000000000000058
S31508002EF080E0E000000000C0A098848380FFFF8087
S31508002F008080000000000010101F1F101000000035
S31508002F10E020202020202020000000003F10080884
S31508002F200818F0E0000000070B101010101C0F0323
S31508002F300000000080C040202020E0C0000000FC07
S31508002F40FF211008080818F0E0000001070C181007
S31508002F501010080F03000000C0602020202020E089
S31508002F606000000001000000E018070000000000F3
S31508002F700000001F1F00000000000080C060202025
S31508002F80202060C080000083CF6C1810303068CFD6
S31508002F90830000070F0810101010180F0700000014
S31508002FA0C0C020202020C0800000001F3F60404095
S31508002FB0402010FFFE0000000C1C101010080F0324
S31508002FC000000000000000000000000000000000F3
S31508002FD00000001C1C1C0000000000000000001C73
S31508002FE01C1C00000000000000000000000000009B
S31508002FF0000000000000000C0C00000000000000AB
S31508003000000000D8380000000000000000000000A2
S3150800301000804020100000001028448201000000B3
S315080030200000000000000000010204081000000073
S31508003030000000000000000000000044444444442E
S31508003040444444444400000000000000000000001E
S315080030500000000010204080000000000000000072
S315080030600000000001824428100000001008040235
S315080030700100000000000000804040202020206061
S31508003080C080000007060000E01018080F070000BF
S315080030900000001C1C1C000000000000C0E02010FE
S315080030A09090A060800000FEFF00F8FF03FC0780F8
S315080030B07F000000070E18111111090C020000000C
S315080030C000008060E00000000000000080784740B3
S315080030D0415FF0800000101C131000000000111F53
S315080030E018100020E0E020202060C0C0000000008A
S315080030F0FFFF101010182FE7800000101F1F101078
S315080031001010180F0700000080C04020202060E043
S31508003110800000FCFF010000000000000300000121
S31508003120070E18101010080C03002020E0E02020DD
S315080031302040C08000000000FFFF0000000001FFE3
S31508003140FE0010101F1F101010080E07010020E0C7
S31508003150E020202020206060800000FFFF10101073
S3150800316010FC00000100101F1F101010101010187E
S31508003170060020E0E020202020206060800000FF7C
S31508003180FF10101010FC00000100101F1F10100087
S31508003190000000000000000080C060202020408061
S315080031A0000000FCFF0100004040C0C34040000191
S315080031B0070E181010100F0F000020E0E020000086
S315080031C0000020E0E02000FFFF101010101010FF94
S315080031D0FF00101F1F1000000000101F1F10000026
S315080031E0202020E0E020202000000000000000FF52
S315080031F0FF000000000000001010101F1F10101024
S315080032000000000000202020E0E020202000000030
S3150800321000000000FFFF000000000060E08080C0A2
S315080032207F3F0000000020E0E0200000A0E06020D2
S31508003230000000FFFF300C3AE18000000000101F7C
S315080032401F10000000131E18100020E0E0202000C8
S3150800325000000000000000FFFF0000000000000062
S315080032600000101F1F10101010101018060020E084
S31508003270E000000000C0E0E0200000FF0FFFE08053
S315080032807C03FFFF0000101F10000F0700101F1F10
S3150800329010000020E0E08000002020E02020000050
S315080032A0FF01071E78C000FF000010101F10100055
S315080032B000030F1F0000000080C060202060C0804F
S315080032C0000000FEFF010000000000FFFE000001F4
S315080032D0070E181010180C07010020E0E020202027
S315080032E0202040C0800000FFFF2020202030101F33
S315080032F00F00101F1F101000000000000000000043
S3150800330080C060202060C080000000FEFF01000031
S31508003310000000FFFE000001070E1911173C6C673C
S31508003320210020E0E0202020202060C0800000FF4F
S31508003330FF10101070D0080F0700101F1F10000094
S315080033400001071E18100080C0602020202040E0E1
S31508003350000000070F1C18383070E0E180000007F5
S315080033600C0810101010180F07008060202020E0AD
S31508003370E020202060800100000000FFFF00000020
S31508003380000100000010101F1F1010000000002090
S31508003390E0E02000000020E020000000FFFF000021
S315080033A0000000FF00000000070F181010100807A3
S315080033B000002060E02000000000A060200000005F
S315080033C0077EE00080780700000000000000071E66
S315080033D003000000000020E020002060E02000201C
S315080033E0E0200003FFC0C03C3FF0807C03000000E3
S315080033F0001F0300001F07000000002060E02000F7
S315080034000020E020200000000001877CE8860100FB
S31508003410000000101816010000131E181000206086
S31508003420E0200000000020A060200000010F3CF80A
S31508003430E0180601000000000010101F1F10100001
S3150800344000000080E06020202020A0E0200000018D
S315080034500000806018060300000000101C171110F9
S315080034601010101806000000000000FC04040404F4
S3150800347000000000000000FF00000000000000003F
S315080034800000007F404040400000000030C00000BF
S31508003490000000000000000000000718E08000009F
S315080034A0000000000000000000030C70800000000F
S315080034B004040404FC0000000000000000000000F2
S315080034C0FF00000000000000404040407F00000070
S315080034D000000000000804020204080000000000C2
S315080034E000000000000000000000000000000000CE
S315080034F000000000000000000000000000000000BE
S3150800350000000000000000000000000000008080AD
S31508003510808080808080808080800000000404088D
S315080035200800000000000000000000000000000085
S31508003530000000000000000000000000000000007D
S315080035400000000000000000000000009898844475
S315080035504444FCF80000000F1F19101010080F1F34
S3150800356010180020E0F00000000000000000000035
S31508003570FFFF180804040CF8F00000001F0F0810DD
S315080035801010180F030000000000000000000000E3
S31508003590000000E0F8180404043C380000000003AA
S315080035A00F0C1010101008060000000000000000A4
S315080035B02020E0F0000000E0F81C04040408FFFFE7
S315080035C0000000030F18101010081F0F0800000055
S315080035D0000000000000000000000000E0F88884F9
S315080035E084848CF8E0000000030F0C1010101008FB
S315080035F004000000000080C0602020E0C000000435
S315080036000404FFFF040404000000000010101F1F3C
S31508003610101010000000000000000000000000006C
S315080036200000000070F88C040CFCF40C0C00007010
S315080036307ECF85858DCD787800000020E0F00000EB
S315080036400000000000000000FFFF08040404FCF866
S31508003650000000101F1F100000101F1F10000000A0
S31508003660000000606000000000000000040404FC84
S31508003670FE000000000000001010101F1F101010A0
S31508003680000000000000000060606000000000000C
S315080036900000040404FCFE0000000000C0C0808096
S315080036A0C07F3F0000000020E0F00000000000009E
S315080036B000000000FFFF8040E01C0404000000102A
S315080036C01F1F100000131E1810000000202020E005
S315080036D0F000000000000000000000FFFF000000EE
S315080036E0000000001010101F1F101010000000002E
S315080036F00000000000000000000004FCFC0804FCB8
S31508003700F80804FCFC00101F1F10101F1F10101FC4
S315080037101F10000000000000000000000000000468
S31508003720FCFC08040404FCF8000000101F1F10002D
S3150800373000101F1F1000000000000000000000001D
S31508003740000000E0F0180C04040C18F0E000000378
S315080037500F0C101010100C0F0300000000000000E2
S315080037600000000000000004FCFC080404040CF837
S31508003770F0000080FFFF889010101C0F0300000067
S315080037800000000000000000000000E0F81C04042F
S315080037900408F8FC000000030F1810109088FFFFBB
S315080037A08000000000000000000000000000040483
S315080037B004FCFC100804041C18001010101F1F102D
S315080037C010100000000000000000000000000000CB
S315080037D0000000003878CCC484840C3C000000004B
S315080037E01E18101011191F0F00000000000000C05D
S315080037F000000000000000040404FFFF04040400A5
S315080038000000000000000F1F1010100C0000000040
S31508003810000000000000000000000004FCFE00009C
S315080038200004FCFE000000000F1F181010081F0FF0
S31508003830080000000000000000000000000000046E
S315080038400C7CC4000080740C040000000000031FF8
S315080038500C0300000000000000000000000000004B
S315080038600000041CF48004ECFC8400E41C04000042
S31508003870011F0F00000F0F000000000000000000ED
S315080038800000000000000000040C3CE4C0241C04F6
S3150800389004000010101C120101131C18100000006F
S315080038A0000000000000000000000004043CC40002
S315080038B000C43C0404000000C080817F0E010000A3
S315080038C000000000000000000000000000000000EA
S315080038D03C0404C4741C0C0000000000181E1311DC
S315080038E01010180E000000000000000000F8040484
S315080038F0000000000000001028C7000000000000BB
S3150800390000000000003F40400000000000000000EA
S31508003910FF0000000000000000000000FF0000009B
S315080039200000000000000000FF000000000000008A
S315080039300404F80000000000000000000000C7288A
S31508003940100000000000000040403F00000000009A
S315080039500000000C02020204081810100C000000F7
S315080039600000000000000000000000000000000049
S31508003970000000000000A3AC0000000000000000EA
S315080039800000000000000000000000583800000099
S31508003990000000000000000000A1A30000000000D5
S315080039A000000000000000000000000000001824CD
S315080039B0241800000000000000000000C4E3000016
S315080039C08060F8074020180F08C808082818000162
S315080039D00000FF00100C0340807F0001061800BAA3
S315080039E0C3001010F01F10F000808282E2928A86CF
S315080039F08000402215081661000040807F00000004
S31508003A000000CAC000202020FE2020FF202020FF22
S31508003A1020202020000000007F40404744444447BF
S31508003A204040400000BDE700000000FE929292FE72
S31508003A30929292FE0000000008080484621E0100AB
S31508003A4001FE020404080800B2CB00040444C44F73
S31508003A504444C424242FB4240404004044242415D4
S31508003A600C04FE040C152424444000B5A5000000EF
S31508003A70F8494A4C48F8484C4A49F80000001010E2
S31508003A801312121212FF1212121213101000C9E8A2
S31508003A9000404042CC0040A09E8282829EA0202008
S31508003AA0000000003F908840432C10284641808043
S31508003AB000D6C300001715D55557557D555755D50A
S31508003AC0151700004040407F555555555555557FAB
S31508003AD040404000C8D500000000FE8282828282F3
S31508003AE08282FE00000000000000FF404040404087
S31508003AF04040FF00000000C6DA000004FF2424242A
S31508003B00FF0400FE222222FE000088482F09091918
S31508003B10AF48300F0242827F0000CAB10000FC8421
S31508003B208484FC001010101010FF101000003F10C5
S31508003B3010103F0000010640807F000000BCE40032
S31508003B4000F8010600F0121212F2020202FE00004C
S31508003B5000FF0000001F1111111F0040807F0000A8
S31508003B60C4EA00002018C744444444FC444444447E
S31508003B700400000404040704040404FF0404040401
S31508003B80040400D4C200000000FE222222222222BF
S31508003B902222FE0000008040300F020202020202CA
S31508003BA042827F000000B7D6008040209088868039
S31508003BB08080838C102040800000804020180700F9
S31508003BC04080403F0000000000C3EB002424A4FE10
S31508003BD0232200C03800FF0008106000080601FF15
S31508003BE001068180404027100C030000BFAA008010
S31508003BF0828282FE8282828282FE828282800000A5
S31508003C008040300F0000000000FF0000000000CADE
S31508003C10BC001010F01F10F00040E05847405060FC
S31508003C20C0004022150816210000FE42424242FE0C
S31508003C300000CDA3008060F807000474545556545C
S31508003C4054740400000000FF0003010545857D0546
S31508003C500505010300D6B900000000F0000000FFCA
S31508003C6040404040400000004040407F4040407F88
S31508003C704040404040404000C7E5001060028C00CC
S31508003C80445454547F54545444400004047E010060
S31508003C9000FF15151555957F000000B3FD0000FEC1
S31508003CA0225A8620102824E324281020200000FF0A
S31508003CB0040827110D41817F010509310000B9C8A3
S31508003CC000001088844320100C10204182840800CC
S31508003CD000010100FE42424242424242FE00010108
S31508003CE000B8E80082BAAAAABA82BE8220180FC80B
S31508003CF008281800001E12125E807F0080601C03D0
S31508003D001C608000D0A100000000E0000000FF0059
S31508003D1000002040800000080403000040807F0067
S31508003D2000000000010E00BFD6008082827E42425B
S31508003D30807E122202FE0000C000403100003A4197
S31508003D4040445840407001093100C1FA0010101073
S31508003D501010FF1010F0101116D01010008040201F
S31508003D6018064120103F44424140407800000000B8
S31508003D70FF0101013109090909897101010101FFE1
S31508003D80FF8080808080809681808080808080FF10
S31508003D900400000800000000000000020001000006
S31508003DA010000000C43D0008000000202C000000A0
S31508003DB0C4010008F03D00082C0000202C0B000070
S31508003DC0E00100080000000000000000007A030A75
S31508003DD000000000000000000102030406070809AD
S31508003DE00000000001020304010203040607080993
S7050800018968
